S015000062745F736F635F656D7074795F322E73333746
S31508000000C00A002011100008B5EB0108B5EB01087D
S31508000010190E0208B5EB0108B5EB0108B5EB0108A6
S31508000020B5EB0108B5EB0108B5EB0108B5EB01081E
S31508000030B5EB0108B5EB0108FB0E0208B5EB0108A4
S31508000040B5EB0108B5EB0108B5EB0108B5EB0108FE
S31508000050B5EB0108B5EB0108B5EB0108B5EB0108EE
S31508000060B5EB0108B5EB0108B5EB0108B5EB0108DE
S31508000070B5EB0108B5EB0108B5EB0108B5EB0108CE
S31508000080B5EB0108B5EB01083D090008B5EB010819
S31508000090B5EB0108B5EB0108B5EB0108B5EB0108AE
S315080000A0B5EB0108D9130008B9130008B5EB010828
S315080000B0B5EB0108D58D010881980108FF8C020867
S315080000C0FB8C020811900108158D0208038D0208A1
S315080000D051980108078D0208C19801082999010855
S315080000E0B5EB0108B5EB0108B5EB0108B5EB01085E
S315080000F0EF070208B5EB0108B5EB0108B5EB0108F7
S31508000100B5EB01084D080008B5EB0108B5EB010889
S31508000110B5EB0108B5EB0108B5EB0108B5EB01082D
S31508000120B5EB0108B5EB0108B5EB0108B5EB01081D
S31508000130B5EB0108B5EB0108B5EB0108B5EB01080D
S31508000140B5EB0108B5EB0108B5EB010817C70208BE
S3150800015045730108B5EB0108E98C0208EF8C020823
S31508000160B5EB0108B5EB0108B5EB0108B5EB0108DD
S31508000170F0B5114A114C124E00F00105E3695F070C
S3150800018013D40DB9334213D103EA00078F4207D1BE
S315080001900B4A1A40002A0CBF00206FF00100F0BD80
S315080001A0013AEBD16FF00200F9E74FF0FF30F6E7BE
S315080001B06FF00100F3E700BF809698000000035037
S315080001C0020001000B4B70B5D96911F480310DD1CD
S315080001D001244FF48072084E084DF46020462C64C2
S315080001E01A61FFF7C5FF3464EC6070BD6FF001005B
S315080001F0FBE700BF00000350001003500020035027
S315080002004FF4803238B50E4B0E4C9A66E56941F6C6
S31508000210713315400122E3630B4B0021DA60022398
S31508000220606121202361FFF7A3FF10B92120FFF7A2
S315080002309FFF0122054BDA600DB10023E36338BD49
S315080002400090005000000350001003500020035097
S3150800025070B5134C6061E3695B071ED40E4656F809
S31508000260043B8D18A361AE420BD104230021212043
S315080002702361FFF77DFF58B9BDE870402120FFF7DD
S3150800028077BF08210846FFF773FF10B104232361DF
S3150800029070BD56F8043BA361E5E74FF0FF30F7E77A
S315080002A0000003502DE9F84315464FF48032184BE9
S315080002B089469A6603F51C33DF690646174041F6F8
S315080002C07132DA63012203F58053DFF84C80DA6075
S315080002D055B9284601220F4BDA601FB10022A3F553
S315080002E00053DA63BDE8F88306F5005404EA080407
S315080002F0A41BAC4228BF2C46494622463046FFF787
S31508000300A7FF0028E6D12644A1442D1BE0E700BF3D
S31508000310009000500020035000E0FFFF000000009E
S3150800032000000000000000000000000000000000BF
S31508000330013800D0FCE770471FB501212C2002F0D8
S315080003404DFF10220021684628F024FD69464FF02B
S31508000350B2401FF01BFA164B188819F0ADFC0B4675
S31508000360024611A1D1E9000119F03AFE19F020FF61
S3150800037001464FF0B2401FF048FA002112224FF012
S31508000380B2401FF0E9F904220A4B12209A630122AF
S315080003909A6306F02BFE122006F00CFE05B05DF8F7
S315080003A004FB00BFAFF300809A99999999999940EF
S315080003B0F828002000100059F0B50368944A23F481
S315080003C07F4323F007039342044685B032D002F1F7
S315080003D0C06202F58022934238D08E4A934227D1D2
S315080003E040F6C41302220021ADF80A301B200DF195
S315080003F00A030FF0CDF940F67413874C0222002148
S31508000400ADF80C301D2003AB0FF0C2F9204611F0F1
S31508000410D5FF0221207812F00BF80023A0220093C2
S315080004201146207811F0E4FF0221207812F014F822
S3150800043005B0F0BD784C0221207811F0F9FF0221B1
S31508000440207805B0BDE8F04012F006B8B0F805000F
S315080004501F280DD10DF10A0300930222002103ABD8
S315080004600FF066F90028E3D16C4BBDF80A201A8014
S31508000470B4F8050021280DD10DF10A0300930222D4
S31508000480002103AB0FF054F90028D1D1644BBDF815
S315080004900A201A80B4F80500232815D10DF10A039D
S315080004A000930222002103AB0FF042F90028BFD1C6
S315080004B05B4ABDF80A301188584A1288914238BFFB
S315080004C05B42584A1BB21380B4F80500252815D19B
S315080004D00DF10A0300930222002103AB0FF028F95D
S315080004E00028A5D14E49BDF80A3008884B494E4A1E
S315080004F009881380884224BF5B421380B4F805003C
S31508000500312812D10DF10A0300930222002103AB10
S315080005100FF00EF900288BD1BDF80A30434A138034
S31508000520434A03EB83035B001380B4F805002728CE
S315080005302CD10DF10A0300930222002103AB0FF020
S31508000540F7F800287FF474AFBDF80A0019F0A4FB89
S315080005502DA3D3E9002319F019FC344B0646188855
S315080005600F4619F0A9FB02460B463046394619F0E4
S3150800057037FD19F01DFE054601464FF0B2401FF043
S3150800058044F929464FF0B2401FF0DFF8B4F80530B9
S315080005902D2B0BD10DF10A030093022200212720EF
S315080005A003AB0FF0C5F800287FF442AFB4F8053066
S315080005B02F2B0BD10DF10A030093022200212720CD
S315080005C003AB0FF0B5F800287FF432AFB4F8050096
S315080005D033287FF42DAF0DF10A0300930122002181
S315080005E003AB0FF0A5F800287FF422AF9DF80A3078
S315080005F0012B02D100F0C4F81AE7002B7FF418AFDC
S3150800060000F0FAF814E700BFFCA9F1D24D624040A9
S31508000610A0000601A0000100562A0020EE280020AE
S31508000620EC280020EA280020E8280020F8280020E6
S31508000630F62800200000000007B588B10BA3D3E90F
S3150800064000230949C1E90223CDE900234FF0FF320F
S315080006504FF0FF33086927F024FE03B05DF804FB6A
S3150800066000220023EDE700BF480B00200DD50155F9
S31508000670200000000348044B834202D0034B03B119
S31508000680184770477C2A00207C2A002000000000BA
S31508000690064B0749C91A891048BF0131491003D0CA
S315080006A0044B0BB101481847704700BF7C2A00204D
S315080006B07C2A00200000000010B5064C237843B9B8
S315080006C0FFF7D8FF044B13B10448AFF300800123AA
S315080006D0237010BD20240020000000009C2603087B
S315080006E008B5054B1BB105490548AFF30080BDE8C1
S315080006F00840FFF7CDBF00BF00000000A80D00208E
S315080007009C260308A3F5803A704700BF174B002BB9
S3150800071008BF134B9D46FFF7F5FF00218B460F4692
S315080007201348144A121A28F035FB0E4B002B00D03A
S3150800073098470D4B002B00D0984700200021040055
S315080007400D000D48002802D00C48AFF3008019F0C0
S31508000750F9FE200029001EF084F919F0E1FE00BF19
S31508000760000008000000000000000000C00A002089
S31508000770C00A0020E025002000000000000000005C
S3150800078008B5642006F0F8FE114B00211A881148B6
S315080007901FF0E8F84FF6FF720F4B1988914215D1F2
S315080007A00E4A012112884FF0B2401A8000230C4AE3
S315080007B013600C4A13600C4B19700C4B19700C4BD8
S315080007C019701EF0D7FF02220A4B1A6708BD00BF30
S315080007D0F028002000800259F4280020EE28002086
S315080007E0C00D0020C40D0020542A0020EA24002051
S315080007F0EC24002000E0035008B500214FF0B24079
S315080008001EF0B8FF0A4B00211A880A4B0A481A80BC
S315080008101FF0A8F80022094B1A700122084B1A701B
S315080008204FF6FF72074B1A800222074B1A6708BD5C
S31508000830F0280020F228002000400259EA2400206F
S31508000840EC240020F428002000D003502F4B2DE97B
S31508000850F3411F78002F55D000221A7080222C4BA6
S315080008601A644FF480722B4B5A6202B0BDE8F081CD
S31508000870214668461EF05BFF9DF80420009B002A6F
S315080008803BD1C3F31308D4F8885015F00F05EFD100
S315080008901023E360204C214B20782149214E002863
S315080008A008BF194696F800C04FEA182201EB0C0358
S315080008B001F80C805A703A0A1A713A0C5A711A4A97
S315080008C04FEA1841128899709A71120ADA71174A12
S315080008D0DF7012681A72120A5A72154A0CF10A0364
S315080008E01288DBB29A423370B8D8B0FA80F35B0943
S315080008F0237001220F4B3570AFE7012AC3D1C3F32A
S315080009001307C0E7B8460C4CBDE700BF542A0020C1
S3150800091000E0035000600059552A002022240020D8
S315080009208624002021240020F2280020C00D002063
S31508000930F6280020EB240020004000594FF0B2436F
S3150800094010B55C6B254A14F0010F1168244B0CD0C6
S31508000950013111600821234AD16080221A6440229D
S31508000960214B1A64214B5C6310BD40221A64204B4C
S315080009701B88B1FBF3F203FB12110029EFD11D4AC4
S315080009801D48136801331360DB07028809D51B4B22
S315080009901B88D21A1A4B92B21A801A481EF0E2FF26
S315080009A0DDE7194BB3F900301A4492B2002B0280E6
S315080009B006DD164B1B88934207D2FFF71DFFCEE7CD
S315080009C003D0124B1B889342F7D80C4B00211B8887
S315080009D01A440B4B92B21A80DFE700BFC00D002005
S315080009E000D003500040005900E003500020005991
S315080009F0F8280020C40D0020F4280020E82800204C
S31508000A00F228002000400259EA280020EC2800209D
S31508000A102DE9F0431425022499B02A46002101A89D
S31508000A2028F0B8F92A46464D002107A8009428F070
S31508000A30B1F906942C460CAE0FCC0FC694E8030009
S31508000A4086E803000FCD12AE0FC694E8030086E8C9
S31508000A5003001021542003F047F810215D2003F00D
S31508000A6043F8384FDFF8E4800121542002F0B6FB42
S31508000A7001215D2002F0B2FB4146384604F0D6FA61
S31508000A8000240125304E4146039030468DF810501B
S31508000A908DF807508DF8144004F0C8FA40F2011397
S31508000AA04FF00509ADF83030ADF848304FF0011376
S31508000AB0CDE90F934FF48023DFF8948009906946B7
S31508000AC038468DF828508DF81F508DF82C408DF833
S31508000AD032408DF85150ADF852408DF84A408DF8A5
S31508000AE05940ADF85A5017948DF83950ADF83A4038
S31508000AF01194C8F820331EF006FF224638460CA982
S31508000B0004F016FA2A46214638461EF0CCFE032380
S31508000B108DF8583006233046159306A9C8F8289349
S31508000B201EF0F1FE2246304612A904F001FA2A46C2
S31508000B30214630461EF0B7FE19B0BDE8F08300BF67
S31508000B4088C70208004002590080025940420F0037
S31508000B5000C0035070B54A4DA6B008AC0FCD0FC4FF
S31508000B600FCD0FC495E8030000264FF4403384E800
S31508000B70030001244F2231460DF14900414D0393EC
S31508000B80CDE905660796ADF810608DF8126028F075
S31508000B9001F921462A208DF848408DF84D408DF8F8
S31508000BA052408DF857408DF85C408DF861408DF8BD
S31508000BB066408DF86B408DF870408DF875408DF85D
S31508000BC07A408DF87F408DF884408DF889408DF8FD
S31508000BD08E408DF8934002F001FB10214FF4B0606F
S31508000BE002F082FF3246284627498DF817608DF8AD
S31508000BF0144003F05FFE40F2BA4340F205120B932D
S31508000C0002238DF81900ADF82220009032462846B6
S31508000C101E498DF820308DF824608DF8306003F079
S31508000C2063FE1B4B0A90039344F20103ADF8483068
S31508000C3040F20113ADF84C305023284608AA05A9FE
S31508000C408DF84E30ADF810608DF812608DF8514071
S31508000C5003F086FE12AA03A9284603F0A3FD4FF463
S31508000C608033EB604FF4807305F58055AB62312015
S31508000C7006F0BCF9312006F09DF926B070BD00BF1C
S31508000C80A0C7020800400059005A6202404B4C00B7
S31508000C900201010010B50C4C06F034FCFFF7B8FE53
S31508000CA01DF0C0FEFFF756FFFFF746FB2288074BED
S31508000CB0002107481A801EF055FE22880021BDE84B
S31508000CC0104004481EF04EBEF0280020F2280020EE
S31508000CD0004002590080025910B50F4C00F030F858
S31508000CE0237833B1012133200C4A0EF067FD002327
S31508000CF023700B4C23786BB10A4B0B4A19780B4BB4
S31508000D003620002918BF1A46094B19880EF056FDD9
S31508000D100023237010BD00BFEC240020EA24002025
S31508000D20EB240020552A00208624002022240020B7
S31508000D30F62800200022014B1A807047E82300207D
S31508000D4010B52BF0B2FA054A148814B1631E0124B3
S31508000D5013802BF0A5FA204610BD00BFE82300201B
S31508000D607FB50368264A23F47F4323F0070393429B
S31508000D7043D1002106221620224B0EF009FD01461A
S31508000D8008B100BEFDE7082212201F4B0EF000FD39
S31508000D90014608B100BEFDE7032214201B4B0EF0E6
S31508000DA0F7FC08B100BEFDE70DF1070102A811F036
S31508000DB067FB014608B100BEFDE7BDF80C30082206
S31508000DC05BBAADF810309DF80B3018208DF812304C
S31508000DD0FF238DF81330FE238DF814309DF80A3062
S31508000DE08DF81530BDF808305BBAADF8163004AB8F
S31508000DF00EF0CEFC08B100BEFDE707B05DF804FBB7
S31508000E00A0000100D3C70208CBC70208C8C702085A
S31508000E1007B50421064B00221B880DEB0100ADF82F
S31508000E20043000F045FA002003B05DF804FB00BF6B
S31508000E3098CC020808B504482BF07BFB1DF039FE58
S31508000E40BDE8084000F01CB828E0020801482BF06D
S31508000E5070BB00BF28E0020807B508201DF0C0FED9
S31508000E600222064B6846CDE900231DF067FE0820DE
S31508000E7003B05DF804EB1DF0BEBE00BF006A181093
S31508000E802DE9F04F544E97B0354609AC0FCD0FC437
S31508000E902B6806F1140523600EAC0FCD0FC495E838
S31508000EA00F00DFF84C8184E80F004C482BF041FB1B
S31508000EB040462BF03EFB4FF48073494FADF83C306B
S31508000EC0484B38460B9309A90EAB0D9303F054FB18
S31508000ED00421B6F834B00DEB01000122ADF804B0D8
S31508000EE000F0E6F9B6F836A00022012102A8ADF80E
S31508000EF008A000F0DDF9B6F838900122042103A80D
S31508000F00ADF80C9000F0D4F9758F0122042104A8DD
S31508000F10354CADF8105000F0CBF9344B4FF448700F
S31508000F20C4F8C8344FF00213C4F8C434A3F58033A8
S31508000F30C4F8CC341C23C4F8B43406F0A1FB08A8C2
S31508000F40ADF8205000F010FA142006F099FB08A816
S31508000F50ADF8205000F0E0F9232006F091FB08A830
S31508000F60ADF8205000F000FAB92138461EF0ADFB66
S31508000F7008A8ADF8205000F0CFF9002205A81146C0
S31508000F80ADF814B000F094F9002206A81146ADF8A1
S31508000F9018A000F08DF90122002107A8ADF81C90D1
S31508000FA000F086F90122002108A8ADF8205000F0CB
S31508000FB07FF9384603F040FA00234046C4F8B434B3
S31508000FC0C4F8C834C4F8C434C4F8CC342BF0B4FA22
S31508000FD017B0BDE8F08F00BF9CCC020828E00208D5
S31508000FE000000A50E070720000C0035002000300BF
S31508000FF02CE002080348044A0449121A92101DF00C
S31508001000DABD00BF7001000830030008E0250020A3
S3150800101008B5154B83F30A8800F030F8FFF7EAFFA6
S31508001020124B13498B4212D30020124B12498B42A2
S3150800103018D3FFF76BFB186850F82240586840F839
S315080010402240013298688242F5D30C33EAE700223F
S31508001050F8E71C6844F8220001325C68A242F8D31B
S315080010600833E4E70022F8E700000020A426030876
S31508001070B0260308B0260308B02603084FF48041BB
S31508001080124B134A70B59A60D3F88820114D42F472
S315080010907002C3F88820104A05F5005491664FF08F
S315080010A0FF3222660D4A62660222C3F8D020BFF3D9
S315080010B04F8FBFF36F8F4FF44036002005F096FF31
S315080010C00020E66005F076FF2E6170BD00ED00E0B9
S315080010D0000000080080004400900050F7FF370029
S315080010E0014B1860704700BFB0270020054B1860F9
S315080010F0054B1B6F03F00703032B01D12AF080B9B8
S31508001100704700BFB827002000800050002307B5AD
S31508001110294801932BF00DFA4FF44073012204215C
S315080011206846ADF8003000F0C3F80122234B0520CD
S31508001130C3F8442401A92BF0F7F9002839D1204B2C
S31508001140D3F8F02042F00102C3F8F020D3F8FC20CF
S3150800115042F08072C3F8FC201A4AA3F55D431A6070
S31508001160019B194A03F5D52303F2FC43B3FBF2F3BB
S31508001170164A013B13610223C2F8F0304FF480731C
S31508001180C2F804334FF06043114AC3F8B02F114A2E
S31508001190C3F8802ED3F8002E42F48072C3F8002ECE
S315080011A0FF2283F82020D3F8002E22F48072C3F899
S315080011B0002E03B05DF804FB28E0020800D00350B7
S315080011C000ED00E0FF030040F8590D00000004E0C0
S315080011D055CEACC5090001004FF06043D3F8802E08
S315080011E030B5D20715D501240B4D8440D5F8FC201F
S315080011F042F08072C5F8FC20D3F8002E2243C3F8CB
S31508001200002E53F82020002AF0D003F820100020E2
S3150800121030BD1120FCE700BF00ED00E02DE9F041EC
S3150800122004460C254FF00108124E0CB314F00100C9
S315080012300BD0002024F0010405FB00625768002F3C
S31508001240F3D09168C0B2B847EFE7224601302028AC
S315080012504FEA520201D0D307F8D508FA00F20F2850
S3150800126024EA0204E8D9103805FB0062B432E5E73F
S31508001270BDE8F081C80D002008B50C482BF059F9D7
S31508001280192005F0A5FE28B1192005F0AFFE192092
S3150800129005F090FE1A2005F09BFE28B11A2005F0ED
S315080012A0A5FE1A2005F086FE002008BD28E00208E3
S315080012B02DE9F0410E461746054610B30F2922D8E8
S315080012C00378E3B1013BDBB2022B1CD8104A32F893
S315080012D013306A78D340DB0715D50E4BD3F8104385
S315080012E09CB92AF0EBFF80463A462846314603F079
S315080012F0D9FE40462AF0DDFF2046BDE8F081FE23F0
S31508001300E7E72224F8E72124F6E70224F4E700BFFA
S31508001310D8CC020800C0035010B50446E0B10378E3
S31508001320C3B1013BDBB2022B18D80D4A32F8133091
S315080013306278D340DB0711D52AF0C0FF0122637813
S3150800134021789A4030235943064B5A502AF0B1FF68
S31508001350002010BDFE23EBE72220FAE72120F8E75C
S31508001360D8CC020840D0035010B50446E0B1037843
S31508001370C3B1013BDBB2022B18D80D4A32F8133041
S315080013806278D340DB0711D52AF098FF01226378EB
S3150800139021789A4030235943064B5A502AF089FF40
S315080013A0002010BDFE23EBE72220FAE72120F8E70C
S315080013B0D8CC020840E0035008B503F069FE054B97
S315080013C000F0553020F05020C3F82004BDE808404E
S315080013D0FFF724BF00E0035008B503F059FE054B9C
S315080013E000F0AA3020F0A020C3F82004BDE8084089
S315080013F0FFF714BF00E003502DE9F04F14460646E8
S315080014000D469B46C36B87B001225B6902A96068DB
S315080014109847F36B01225B6903A92846984702A8F7
S315080014201DF0EAFF074648B10023A37563754FF020
S31508001430FF33A360002007B0BDE8F08F03A81DF0B6
S31508001440E8FF0123A375237E04EBC303DD611F8434
S315080014506368AB420ED1206003A81DF0FCFF4FF075
S31508001460FF332075A360237D043B022B26D8002377
S31508001470A375DFE723681A1A53425341A37503A8D5
S315080014801DF0E9FF237D834218BFA77503A81DF049
S31508001490C4FF074602A81DF0C0FF874218BF0023F5
S315080014A003A818BFA3751DF0C0FF074602A81DF0C4
S315080014B0BCFF87421CBF0023A375D4E703A81DF011
S315080014C0ACFF80B1F36B022228465B6904A99847F2
S315080014D004A81DF0B1FF0346207D032839D8DFE8AC
S315080014E000F03838040903A8F3E7CC22237E04EB7E
S315080014F0C3031A8401F0E8FA109B187003A8277E24
S315080015001DF07FFF04EBC70787F82200237E03A898
S3150800151004EBC303B3F8209093F822701DF07DFF07
S31508001520804603A81DF081FF8246B8F1000F15D04A
S31508001530F36B022228465B6904A9984704A81DF0A4
S3150800154040FF6075637D6BB90023A3754FF00008F3
S3150800155038E0227E04EBC2021384CBE703A81DF011
S315080015601BFFEEE794F81680B8F1000FEED0B9F13C
S31508001570000F09D1DFB10123627EE375002A44D149
S315080015809F4218D1677614E0736C05EB0A0259423C
S3150800159085EA020008421CBF0021A175591E0A40AF
S315080015A09B1A9945D0D8A37D002BE3D1CEE7E37DDE
S315080015B043B94FF000084B465246294630461DF0BF
S315080015C059FCA060A27D12B123694B4423611449DA
S315080015D0237E097899421ED901332376BBF1000F81
S315080015E01BD0D2B1E37DC3B1B8F1000F15D1032FDB
S315080015F013D0A1684B1C10D0109B2246009330468E
S315080016000123FFF7F9FEA07507E0012FDAD0032FB3
S3150800161008BFA376CDE70023A375A07D0BE700BF1F
S3150800162000CD02082DE9F04F0E46984600238BB0F0
S3150800163004464FF0FF31104617468DF8133001F077
S315080016402DFAB6F5801F3BD3B21C53D1E56A6B1C45
S3150800165057D12046616A1DF053FB0546B31C18BFD7
S315080016600123DFF810910193636A626C0293236881
S3150800167005A902FB053AE36B05225B6950469847C4
S3150800168005A81DF054FF1DF077FF50461DF07FFF9B
S315080016904FF0000B824601464B1C05D0636C81EA6D
S315080016A00A025B42134232D0294620461DF028FB27
S315080016B0029BAB424DD0BBF1000F4DD10546D3E797
S315080016C0314605AA04F108001DF0E4FD0146481C50
S315080016D010D0384601F0E2F90122394620460DF1CC
S315080016E013031DF019FC28B19DF8133088F8003053
S315080016F0002003E0237C002BA8D12D200BB0BDE8E9
S31508001700F08F2368ED1A636CB5FBF3F5A6E7484638
S3150800171001F0C4F90DF1130349462046019A1DF05C
S31508001720FBFB034690B1B21C03D0D9F80020B242A5
S315080017300CD19DF8132003930D4B88F800204946D9
S315080017401A68384627F02EFB039B9B46D9F80810E3
S31508001750A2E7BBF1000FD0D0B6F5801FC8D231463C
S3150800176098F800307A6804F1080001F0C5F8BFE778
S31508001770FCCC0208A41500202DE9F34104461746BF
S3150800178098460E46194D816AE36A8B422AD04B1C4D
S3150800179018E0284601F082F90122294620460DF173
S315080017A007031DF0B9FB30B14346294620469DF88C
S315080017B00720B847B0B1A9684A1C05D0012E0AD03F
S315080017C0E36A9942E5D10DE0696820461DF025FBDC
S315080017D0012E0146D8D16B6881EA0302636C5B422D
S315080017E01A42D1D002B0BDE8F08100BF78150020BA
S315080017F02DE9F041036B9046826B07689A4288BFD1
S315080018008363426C436A90B002FB0377C36B0E4650
S31508001810052201A95B6904463846984701A81DF0C8
S3150800182086FE01280146307057D0656CE26B236846
S31508001830606AD2F814C005FB0030052206A9E04705
S3150800184006A81DF074FE01284FF0000523D0D4E940
S315080018500A3201219342CDE90B458DF834800E9565
S315080018608DF83C102AD1194620461DF0D6FA236B6E
S31508001870626C14339B1AE06223630C9B53B99DF880
S315080018803C303BB1626A616C2368E06B01FB023154
S315080018901DF005FE0C9DE36B05225B6901A9384620
S315080018A0984701A81DF043FE30702846236BA26BAB
S315080018B09A4288BFA36310B0BDE8F081237C33B990
S315080018C01C490BAA04F1080001F064F8D5E7204684
S315080018D0194A0BABFFF750FFCFE7237C23BB224601
S315080018E0164904F1080001F055F8616A20461DF012
S315080018F028FA616A421C20461DF0F1F9054620B90E
S31508001900236B626C1344143B23632046A16A1DF0C3
S3150800191084FA2368A062C01A636CB0FBF3F06062B5
S3150800192020461DF0BDFAB6E700232046044AFFF715
S3150800193023FFDAE765200008E11F0008A1EF010888
S315080019403DEF010873B50D46D11E4A421C461B7E63
S315080019504A419A4226D129682368994222D3636864
S3150800196099421FD8114E0DF107033246FFF75AFE6A
S31508001970C0B972686B689A4214D19DF80730DA1EAE
S3150800198053425341227E93420CD16369013363610A
S31508001990D4E90323934205D22968A26842F82310A2
S315080019A001332361012002B070BD00BFD0150020AD
S315080019B02DE9F04F9A468BB09DF85030DFF850B1BC
S315080019C00293DBF81030804653450D461646C0F0A4
S315080019D09980D146DBF804300193B9F1000F00F085
S315080019E08D80D8F83C3001225B6907A90198984791
S315080019F007A81DF00EFDDBF80030984240F0858000
S31508001A0007A81DF012FD0428074614D107A81DF0E3
S31508001A1013FD019B029A04463B44002A3FD18642A5
S31508001A2012D91446361A404601991DF0F6F9A9EB63
S31508001A3004090190D1E7D8F83C3002225B69019885
S31508001A4008A9984708A8E2E7841B544528BF5446C6
S31508001A50032C03EB0607AAEB040A4FEA94021CD9E7
S31508001A60D8F83C30294638465B69984724F0030382
S31508001A7004F003061F441D44002ED4D0D8F83C3089
S31508001A8001225B6908A9384698473246284608A9BC
S31508001A90354427F087F90026C5E72646ECE70746CA
S31508001AA000F00302039203442A1804920593049B48
S31508001AB0DD1B059BD81B039B9F420FD1002FB2D07D
S31508001AC0D8F83C30012208A95B6998473A46284667
S31508001AD008A927F035F978B93D44A4E7D8F83C3089
S31508001AE0012208A95B6998470422284608A927F015
S31508001AF027F908B9043FDAE74FF0360948460BB02C
S31508001B00BDE8F08F4FF06309F8E74FF06F09F5E786
S31508001B10FC1500202DE9F0410F4616469846044666
S31508001B2088B060B390F83450FDB101211DF0ADF8CE
S31508001B3000210E9BCDE90511CDE902379DF83C3011
S31508001B40CDF804808DF81C30237C04968BB90D499A
S31508001B5001AA04F1080000F01DFFDDE90553E06B5A
S31508001B60002E08BF1D461DF029FA284608B0BDE814
S31508001B70F0812046044A01ABFFF7FEFDEDE7054676
S31508001B80F3E700BF6BEF0108451900082DE9F04F90
S31508001B9099B00F4609920A69416C0E931439D31D00
S31508001BA0B3FBF1F3013302EBC302036B0446934222
S31508001BB0C0F0B3810023DFF824940D93E36A484606
S31508001BC01946079300F06AFFD7E9033604930E9B7C
S31508001BD0022B4ED1CC2E40F08A81099B002B42D095
S31508001BE0394620461DF048FA656C079A6B1E134065
S31508001BF01490ED1AE36B01225B6916A97868984779
S31508001C0016A81DF00AFC00280CBF04230823782E0A
S31508001C1006933DD9012300254FF0080A05933B6832
S31508001C2005990E98C9F80030C9F810601DF017FC20
S31508001C304FEA9A0310930023DDF81CB089F81400C4
S31508001C400B930F9308930C93616C4A1E0BEA0202DE
S31508001C508B1A002E38D05544AB4240D8236B5B1AFA
S31508001C6013442363ABE0049B1B6814930823069371
S31508001C70D0E7656C079A6B1E1340782EA5EB030513
S31508001C8016D8FB7D7BB9099B002BB3D10423069399
S31508001C90331DAB4210D9A6B1082DBBD804250023A5
S31508001CA0AA460593BBE7099B002BA3D10823EEE7B9
S31508001CB0099B002B9ED1D9E7002505954FF0040A0C
S31508001CC0ADE704250596F9E75345C7D3B0460BEBB0
S31508001CD00A030393089B002B18BF032313E0A3EB07
S31508001CE00A039E42B0460BEB0A0228BF98469E425C
S31508001CF00392EFD90123D9F8102089F817309642B4
S31508001D0071D1C9F804B0089399F81730002B6CD034
S31508001D1099F818200899D31C09EBC3030132C3F8B4
S31508001D2004B0A3F80880997289F81820B8F1000F52
S31508001D3014D00E9B022B5BD10B9B7BB90F9B4344A4
S31508001D40032B0BD9E36B01229B69039814A99847C7
S31508001D500546002840F0E38001230B93089B16A84C
S31508001D600193059B009399F814204346396800F0BF
S31508001D704BFEE36B58469B69109A16A99847051EB1
S31508001D800D9B18BF5B4652460D935946434620465F
S31508001D901DF070F8236B08F10302A3EB0A0322F087
S31508001DA003029B1AC9F808002363002D40F0B78088
S31508001DB00F9BDDF80CB04344A6EB08060F93594673
S31508001DC020461DF02AF800258346002E7FF43CAFF6
S31508001DD0824A3968936804F10800E36252680E9BE8
S31508001DE000F08AFD84E002238DE7C9F804B09DE778
S31508001DF0099B002B30D1049BB8F1030F43440A9387
S31508001E0027D9DDE90301E36B4FEA98029B699847F6
S31508001E100546002865D118F003025FD0049B28F018
S31508001E2003052B440493039B1D444FF0FF33049989
S31508001E3015A8159326F0B6FFE36B28469B69012281
S31508001E4015A9984705460A9B0493002D86D0039B3F
S31508001E5099E74246039DE8E7039B0A9307F12003A7
S31508001E601193FB7D78689BB100233D7E0C9AD9B20D
S31508001E708D4211D9119903F1010C31F833109142B1
S31508001E8026D9069907EBC303D8690A44104403E028
S31508001E900C9B069A13441844E36B01225B6915A947
S31508001EA09847159B012213930C9B0A9804330C93AD
S31508001EB0E36B13A99B699847039B0A9A43449B1AA9
S31508001EC0042B054607D978B9134604330A93C8E79D
S31508001ED06346521ACBE70A9B0393B6E70A9B049319
S31508001EE03CE70A9B0493B2E70A9B0393AFE7702685
S31508001EF0304619B0BDE8F08F4FF0000A4FE03A6956
S31508001F00616CD31D1439B3FBF1F3013302EBC30241
S31508001F10236B9342BFF452AE5DE01C26E8E73D2DE5
S31508001F2059D104F1080303932368079A606CA2EB5E
S31508001F30030ABAFBF0FA00FB0A301DF028FBE16A37
S31508001F40804620461CF069FFA26A8242D7D0626C9E
S31508001F50D9F80830511E0B40216B2668891A0B44A4
S31508001F6023630D9BE0629E1BB6FBF2F6B245C3D116
S31508001F70079BB3EB080A12D0E36B4FEA9A02414675
S31508001F809B6998478346E36A079A5344E362236B3F
S31508001F9003989B1A434423631DF04DF9DA462368D8
S31508001FA0616CE06B01FB06311DF066FA20461CF0F9
S31508001FB077FE20461CF074FF2063BAF1000F9ED00E
S31508001FC03A69616CD31D1439B3FBF1F3013302EBA3
S31508001FD0C3029042A8D22E468AE700BFA415002065
S31508001FE0032A2DE9F34106460D4617461C4606D137
S31508001FF0237A012B23D0012002B0BDE8F081DFF857
S315080020006080096842460DF10703FFF70BFB606025
S315080020100028EDD19DF80720237A032AE8D0D8F8BE
S3150800202004106A689142E3D1012B2969D4F80CC0DF
S3150800203007D172690CEB0103934202D92074207C04
S31508002040DAE708316144E1603B4601222946304619
S31508002050FFF79CFD60600028CAD00020CCE700BFCF
S31508002060D01500202DE9F341089C032A1746266857
S3150800207006D1237A012B24D0012002B0BDE8F081D5
S31508002080DFF89080304642460DF10703FFF7CAFA9B
S3150800209060600028EDD12568D8F80400A96AD5F84B
S315080020A044C04840CCF100031840227AE1D1012A05
S315080020B009D1E268D8F8103013447269934202D9FC
S315080020C02074207CD9E72868EB6A1B1A081AB3FB28
S315080020D0FCF3B0FBFCF083420BD1706CF36A421E32
S315080020E01340326B121A1344284633631CF095FECC
S315080020F0E862D8F81020E36808321344E360012246
S315080021003B4604492068FFF741FD60600028B0D0CF
S315080021100020B2E7D01500202DE9F04F4FF0FF332D
S315080021204FF6FF720025044600F10806C0E90923A8
S315080021308BB0C3620562056330460F461DF07BF817
S3150800214020461CF0ADFD20BB204639461CF028FE73
S3150800215020461CF0A5FD20BB5E200BB0BDE8F08F25
S31508002160E26B2368606CD2F814C000FB05300522C8
S3150800217005A9E04705A81DF0DAF9012828D129465E
S3150800218020461CF0DEFD421C294620461CF0A7FD11
S315080021900135E3699D42E3D320461CF081FD002802
S315080021A0D2D000254FF0FF394FF6FF73CA46A8462E
S315080021B0C4E90853E369984514D3A5EB0905012D2D
S315080021C036D84FF6FF72636A934246D16720C4E752
S315080021D01DF0D7F90028DBD0294620461CF0B1FDB2
S315080021E00246D1E72368E26B606C576900FB08304A
S315080021F0052205A9B84705A81DF099F9834605A83B
S315080022001DF06CF9074658461DF0B6F968B15745F2
S3150800221038BFC4F82480B94528BFB946BD4238BF7F
S315080022203D46BA46236A0133236208F10108C1E72D
S315080022304FF6FF7300256362E3699D42C1D2676C5E
S315080022402068E36B052207FB05005B6905A998472B
S3150800225005A81DF043F90135EEE7E26B676C2068C7
S31508002260694607FB030055690522A84768461DF01D
S3150800227035F9626A2368606C504D00FB02301DF028
S3150800228086F94FF0FF33A062E3622A466FF0010138
S31508002290204605ABFFF7C6F900284FD1AD68294699
S315080022A02046E5621CF0D8FC206320B92046E16A86
S315080022B01CF0B3FDE062294620461CF0AEFD05463B
S315080022C0A36A9D423CD16569626CE91C143AB1FB6C
S315080022D0F2F14FF0000805EBC1050335B5FBF2F541
S315080022E0C1460235E36999453CD3A8455AD22046EA
S315080022F0616A1CF005FD0027064604F1400AB84548
S3150800230012D8626C2368694602FB0639E36B05221C
S315080023105B694846984768461DF0E0F8534602460A
S315080023204946E06B1DF035F9314620461CF0E8FCBD
S315080023300137AF420646E2D364200EE7A56AAEE748
S31508002340294620461CF088FC236B29460344074689
S31508002350236320461CF061FD0546002FB0D1C4E971
S315080023600B07ADE7636C2768052203FB0977E36B68
S3150800237005A95B693846984705A81DF0D8F81DF0E9
S31508002380FBF860B138461DF002F9014620461CF0FC
S3150800239063FC636C143B984208BF08F1010809F115
S315080023A001099FE730461CF046FF002320461946E0
S315080023B0034AFFF7E1F90020CFE600BFD015002059
S315080023C007EF01082DE9F0410025634B0E46D3F8C7
S315080023D0008004461D6018B921252846BDE8F0810D
S315080023E090F8347007B30A6803689A4240F0AA80E6
S315080023F04A6843689A4240F0A5808A6883689A4288
S3150800240040F0A080CA68C3689A4240F09B800A6977
S3150800241043699A4240F096808A69C36B9A4240F0B3
S3150800242091804B698361D8E768223946856B26F027
S31508002430B1FCD6E90212336804F108002360736818
S31508002440A5636360336963617369A3611CF005FF63
S31508002450B36904F14000E3639B68984720B9676C49
S3150800246017B16368B3FBF7F794F84330E761002BBD
S31508002470B2D00023656C2366002D6BD0002F69D07F
S315080024802368B3FBF5F205FB1233002B5CD16768B2
S31508002490B7FBF5F605FB1676002E55D120461CF03F
S315080024A0CBFBA369043303449F424FD340F63472EF
S315080024B06369CC3B93424BD8B5F5805F4AD3032179
S315080024C020461CF0E2FBD4E90001E36B1B68984741
S315080024D00546E36B0220DB6898472DB184F8346023
S315080024E0E06B1CF06BFD78E741462046FFF714FECB
S315080024F06428054604D141462046FFF70DFE0546E9
S31508002500636C143BD5B9226A204602FB03F61CF01D
S3150800251093FBA369043303449E4203D284F83450E0
S315080025205A25DDE70123D4E900010C4A84F8343042
S315080025301368013313601CF02AFFD1E7002384F8DF
S315080025403430CDE75D2548E7592546E75A2544E75F
S315080025505F2542E75B2540E7340F0020300F002057
S315080025602DE9FF410C4616461F46054680B390F8EE
S3150800257034307BB3B1F5801F2ED2DFF8608001219D
S315080025801CF083FB2146424628460DF10F03FFF750
S3150800259049F8044670B99DF80F30012B11D1D8F8C7
S315080025A01030BB4212D10246009031462846FFF74A
S315080025B0FFF90446E86B1CF001FD204604B0BDE8AF
S315080025C0F081022B14BF2D246024F3E76324F1E77E
S315080025D02124F2E71124F0E72924EEE7FC15002070
S315080025E02DE9F04385B00C4617461E460546DDF82C
S315080025F0308098B390F8343093B3B1F5801F31D258
S31508002600DFF8649001211CF040FB21464A46284623
S315080026100DF10F03FFF706F8044688B99DF80F3049
S31508002620012B14D1D9F8102006EB08039A4213D3CC
S3150800263000904346324639462846FFF7B9F904461C
S31508002640E86B1CF0BBFC204605B0BDE8F083022B06
S3150800265014BF2D246024F3E76324F1E72124F2E76D
S315080026601124F0E72924EEE7FC1500202DE9F341B3
S315080026701F4600230C46164605463B6050B390F8A5
S3150800268034304BB3B1F5801F28D2DFF854800121CE
S315080026901CF0FBFA2146424628460DF10703FEF7D1
S315080026A0C1FF0446A0B99DF80730032B10D0022BB2
S315080026B00AD10123336004233B60E86B1CF07EFCDF
S315080026C0204602B0BDE8F081D8F810303060F3E754
S315080026D02D24F2E72124F3E71124F1E72924EFE773
S315080026E0FC15002073B50446056B1CF0A5FA636E4D
S315080026F003449D428CBF00230123854294BF0025D5
S315080027002D1A207C84F85030656584F85800A8B1E5
S3150800271000230C4E1A461946204600961CF079FDF1
S31508002720002305461A461946204600961CF07AFDEF
S31508002730E3682844984294BF0020C01AE06502B0B6
S3150800274070BD00BFFFFF0F002DE9F3471E46436922
S315080027500446B342884617469DF828904ED300256E
S315080027608DF8075020461CF067FAD4F830A0824549
S315080027700AD2236AB5EB430F06D2002220460DF192
S315080027800701FFF735F8B8B39DF80730012B05D1D7
S31508002790002220460DF10701FFF72AF8B9F1030FC9
S315080027A006D0314620461CF032FA256B854227D3DF
S315080027B0144D4FF0FF31284600F070F94B46294674
S315080027C000222046C5E90376C5F80080FFF7DEF942
S315080027D0236E054663B12046FFF784FF94F8503010
S315080027E013B994F858301BB1236E04F1500098477A
S315080027F0284602B0BDE8F0870135B3E76225F7E75A
S315080028001C25F5E7D01500202DE9FF410F46904617
S315080028101E46054698B390F8343093B3B1F5801F39
S3150800282031D21A4C02211CF030FA22463946284683
S315080028300DF10F03FEF7F6FE024678B10123424674
S315080028400093394633462846FFF77EFF0446E86B71
S315080028501CF0B4FB204604B0BDE8F0819DF80F30AB
S31508002860012BEBD12169B142E8D1009341463346A9
S315080028702846FFF79DF804460028DFD1E7E721241C
S31508002880E8E71124E6E72924E4E700BFFC15002061
S3150800289030B50C46054685B028B390F8343023B3D6
S315080028A0B1F5801F23D202211CF0EFF90DF10F03B9
S315080028B0214628460F4AFEF7B5FE034688B99DF815
S315080028C00F20032A0DD003222146009202462846ED
S315080028D0FFF73AFF0446E86B1CF070FB204605B08C
S315080028E030BD2D24F7E72124F8E71124F6E729243B
S315080028F0F4E700BFFC1500202DE9F043466886B3CF
S31508002900056898464FF0000CA946AE4655F83C4077
S315080029100CF1010CC4F31307013401D0B94217D0E6
S3150800292066450EF1080EF1D12F46002403E0A642B3
S3150800293007F1080712D055F8343001340133F6D1BF
S31508002940C1F3130141EA0851C7E90012BDE8F08353
S3150800295041EA0851CEE90012BDE8F083B8F1030F49
S3150800296003D101230372BDE8F083002303E09E42EE
S3150800297009F10809F5D055F833400133C4F3075473
S31508002980032CF4D1C1F3130343EA0853C9E900320F
S31508002990BDE8F0832DE9F0410646406882B0C0B133
S315080029A00F4690460024336853F8345003EBC403AB
S315080029B0C5F30752C5F31301013504F1010406D026
S315080029C05B683046CDF80080B84710B1706884421D
S315080029D0E9D302B0BDE8F081024B1968024B1868CA
S315080029E0FFF7F0BCBC270020DC27002008B529F03B
S315080029F05CFC014B186008BD28160020014B1868BE
S31508002A0029F04EBC2816002073B504462248012A30
S31508002A1000EAC1119DF8185023F07C4007D9961E8C
S31508002A20012E28D9073303F07F03194308E09DF8E0
S31508002A301C300A43DB0603F0C053134343F06041DE
S31508002A400023C4E900108DF80730B5B120222146CD
S31508002A500DF107001CF0B7FD1A220DF10700211D24
S31508002A601CF0B1FD082063689DF8072043EA8263DD
S31508002A70636002B070BD1143E2E71B220DF1070047
S31508002A8021461CF0A0FD23689DF80720042043EA90
S31508002A90C2632360EDE700BF80FFFF0738B5094B27
S31508002AA00D461A680021044626F074F900234FF0F3
S31508002AB0FF322383C4E900252361A260E382A3765B
S31508002AC038BD00BFFCCC02080138C0B205289ABF41
S31508002AD0014B185C0120704701CD02082DE9F04131
S31508002AE00746154600240E46596888B0490A012942
S31508002AF022464FEA510104F10104F8D8DC789978A6
S31508002B0024031B88C90201F4006104F480540C43B1
S31508002B10C3F30A035203234492B24FF000089C18E9
S31508002B20274B6FEA0444039325F07843ED4302A943
S31508002B300DF107001B2202938DF807801CF043FD58
S31508002B409DF80720029B02A943EAC2630DF107001C
S31508002B501B2225F07845049302958DF807801CF012
S31508002B6032FD9DF80720029B6FEA144443EAC263CC
S31508002B7005934FF0FF330794069307A9BB69012213
S31508002B8006F110009847BB6905A90446012206F11B
S31508002B9008009847BB69404518BF044604A90122A6
S31508002BA0301D98470122404518BF0446BB69304688
S31508002BB003A99847404508BF204608B0BDE8F081FC
S31508002BC001009AB2044BD3F88420D206FBD4D3F87A
S31508002BD08400C0F3811070470040005038B5174B89
S31508002BE00546D3F828310C4603F00703013B052BAD
S31508002BF020D8DFE803F003131B0F0B1728F0DAFBC6
S31508002C00052305B1286004B1236038BD28F0D2FB3E
S31508002C100623F6E728F018FC0723F2E728F00AFC53
S31508002C200323EEE728F006FC0423EAE728F0FEFB78
S31508002C300223E6E700231846E3E700BF00800050BA
S31508002C40002337B50193164B0546D3F820320C46B8
S31508002C5003F00703042B21D8DFE803F0030B111652
S31508002C601B0001230DB1019A2A6004B1236003B049
S31508002C7030BD002101A8FFF7B1FF1223F2E728F0C3
S31508002C80E3FB07230190EDE729F004FB0A230190F3
S31508002C90E8E728F021FC09230190E3E70023E1E7B0
S31508002CA00080005038B5104B0546D3F880300C46E6
S31508002CB003F00303022B0BD0032B0DD0012B0FD1EE
S31508002CC028F07EFB0E2305B1286004B1236038BDC9
S31508002CD028F0BAFB0723F6E728F06CFB0623F2E791
S31508002CE000231846EFE700BF0080005038B5104BA8
S31508002CF00546D3F800310C4603F00303022B0BD02C
S31508002D00032B0DD0012B0FD128F094FB032305B11B
S31508002D10286004B1236038BD28F0DEFB0923F6E7F6
S31508002D2028F08EFB0823F2E701230020EFE700BF17
S31508002D300080005038B5184B0546D3F820010C46DC
S31508002D4000F00700062823D8DFE800F0040A0E166C
S31508002D50121A1E00012305B1286004B1236038BD8C
S31508002D6028F028FB0523F6E728F064FB0323F2E79F
S31508002D7028F06AFB0723EEE728F058FB0223EAE768
S31508002D8028F018FB0623E6E728F054FB0423E2E7BD
S31508002D9000231846DFE700BF0080005038B5104B07
S31508002DA00546D3F840310C4603F00303022B0BD03B
S31508002DB0032B0DD0012B0FD129F06CFA0A2305B18C
S31508002DC0286004B1236038BD28F086FB0923F6E79E
S31508002DD029F063FA0C23F2E701230020EFE700BF8E
S31508002DE000800050002337B50193164B0546D3F8EB
S31508002DF060320C4603F00703013B032B1FD8DFE8BC
S31508002E0003F0020E1914002101A8FFF793FF1023FF
S31508002E100DB1019A2A6004B1236003B030BD0021C8
S31508002E2001A8FFF7BBFF1123F2E728F00DFB0723E4
S31508002E300190EDE728F0FAFA02230190E8E700236B
S31508002E40E6E700BF00800050002337B50193164B14
S31508002E500546D3F894320C4603F00703013B032BCF
S31508002E601FD8DFE803F0020E1914002101A8FFF7A6
S31508002E7061FF10230DB1019A2A6004B1236003B0E3
S31508002E8030BD002101A8FFF789FF1123F2E728F0DA
S31508002E90DBFA07230190EDE728F0C8FA0223019030
S31508002EA0E8E70023E6E700BF0080005038B5104B7E
S31508002EB00546D3F860310C4603F00303022B0BD00A
S31508002EC0032B0DD0012B0FD129F0E4F90A2305B104
S31508002ED0286004B1236038BD28F0FEFA0923F6E716
S31508002EE029F0DBF90C23F2E701230020EFE700BF06
S31508002EF0008000502E4B98424AD022D82D4B98423B
S31508002F0040D014D82C4B984239D00AD82B4B98422B
S31508002F1032D02B4B98422FD02A4B98422CD00020E7
S31508002F207047294B9842FAD1284B186F7047284B9F
S31508002F3098422AD0274B9842F1D1244BD3F88000E7
S31508002F407047254B98422BD009D8244B984223D05A
S31508002F50234B9842E3D11D4BD3F88C007047214B85
S31508002F60984221D003F5740303F510539842D6D13D
S31508002F70164BD3F898007047144B986D7047134B4F
S31508002F80586E7047114B586F7047104B986F7047C3
S31508002F900E4BD3F8840070470C4BD3F88800704763
S31508002FA00A4BD3F890007047084BD3F89400704743
S31508002FB00048E8010024F400C0CF6A0080841E009F
S31508002FC000093D0040420F00405DC6000080E00F4A
S31508002FD0C0EA210180BA8C01007E560380D54302DF
S31508002FE0006CDC020090D00373B50D460021114B2E
S31508002FF00191D3F88041064604F00304022C13D04D
S31508003000032C0CD0012C13D101A8FFF793FE102432
S315080030100EB1019B336005B12C6002B070BD28F07B
S3150800302013FA07240190F3E728F000FA0190EFE776
S315080030300C46EDE70080005038B5104B0546D3F82E
S3150800304040320C4603F00303022B0BD0032B0DD0A2
S31508003050012B0FD129F01EF90A2305B1286004B106
S31508003060236038BD28F038FA0923F6E729F015F960
S315080030700C23F2E701230020EFE700BF0080005091
S3150800308038B5144B0546D3F800020C4600F0070085
S3150800309004281BD8DFE800F003090D1115000123E9
S315080030A005B1286004B1236038BD29F0F3F80A2376
S315080030B0F6E728F011FA0923F2E729F0EEF80C23CF
S315080030C0EEE728F09DF90F23800AE9E70023184662
S315080030D0E6E700BF0080005038B5144B0546D3F824
S315080030E008020C4600F0070004281BD8DFE800F0A9
S315080030F003090D111500012305B1286004B12360E9
S3150800310038BD29F0C7F80A23F6E728F0E5F90923B8
S31508003110F2E729F0C2F80C23EEE728F071F90F233D
S31508003120800AE9E700231846E6E700BF008000505A
S31508003130B0F5207F1FD009D8B0F5007F15D003D889
S3150800314068B1B0F5C07F0AD000200CE0B0F5607F0A
S31508003150FAD10B4BD3F88000C0F3011003E0084BFB
S31508003160186FC0F3033001307047054BD3F8900051
S31508003170C0F30460F7E7024B186FC0F38020F2E74C
S315080031800080005002464FF48030104B10B5986608
S315080031900020FFF7CDFF504341F671320C4BDC6936
S315080031A0DA635A6804F4803422F4401259B909499A
S315080031B0884294BF00200120000502435A600CB1E2
S315080031C00022DA6310BD0449F2E700BF0090005000
S315080031D000000350005A6202002D3101430905D050
S315080031E0012B0CD0022B084B18BF002300F01F0040
S315080031F039B103F58053012282401A607047034BA8
S31508003200F4E703F50053F6E7688000506480005041
S315080032101FB50021B0F5807F0446CDE9001100F006
S31508003220D2803AD85E2833D85E2833D8DFE800F053
S31508003230453232323232323232323232323232324D
S315080032403232323232323232323232323232323250
S3150800325045AC45ACBCBCBCBCBCACC64E6BDC4EACD1
S31508003260ACAC3232323232323232ACACAC7EE6AC54
S3150800327032323232323232323232323232BC454570
S3150800328045E14E4EEB8D63C132323232329E4500F5
S31508003290802870D0009804B010BDB0F5D06F00F04B
S315080032A0A38035D8B0F5607F79D01AD8B0F5007FFD
S315080032B065D005D8B0F5C07FECD128F0A1F85CE060
S315080032C0B0F5207F60D0B0F5407FE3D128F098F8BC
S315080032D002464FF42070FFF72BFFB2FBF0F25208BC
S315080032E05BE0B0F5B06F69D00AD8B0F5806F5BD0F7
S315080032F0B0F5A06FCED100216846FFF7A1FCC9E75B
S31508003300B0F5C06FC6D100216846FFF747FDC1E793
S31508003310B0F5106F6DD00ED8B0F5086F78D0B9D863
S31508003320B0F5E06F6AD0B0F5F06FB3D1002168460A
S31508003330FFF7BCFDAEE7B0F5406F3AD013D8B0F54D
S31508003340206F60D0B0F5286FA4D10021324B0391CD
S31508003350D3F8703203F00303012B02D103A8FFF759
S315080033601DFD039B39E0B0F5486F93D100216846EF
S31508003370FFF76AFD8EE728F023F800908AE728F021
S315080033801FF80246204604E028F03AF802464FF4B1
S315080033902070FFF7CDFEB2FBF0F200927AE701A8A3
S315080033A0FFF780FC019AEDE700216846FFF7C2FCAB
S315080033B070E700216846FFF711FC6BE700216846B5
S315080033C0FFF712FE66E74FF0E02302911B695B07E1
S315080033D005D528F015F80290029B00935AE703A931
S315080033E002A8FFF7DBFCF7E700216846FFF748FE6F
S315080033F050E700216846FFF76FFE4BE70021684655
S31508003400FFF71AFE46E700216846FFF7EBFC41E79F
S315080034106846FFF76BFC3DE70080005008B5802042
S31508003420FFF7F6FE034B98429EBF4FF48032024BDD
S315080034301A6708BD005A620200A000501FB503466D
S315080034400020B3F5807F019000F0C58065D85D2B1C
S3150800345056D84C2B07D82D2B48D8232B2CD8019877
S3150800346005B05DF804FB4D3B102BF8D801A252F8C5
S3150800347023F000BFCD3500085F3400085F3400082C
S315080034805F3400087B3500085F3400085F340008A5
S3150800349027360008993500083F3500081D3600080C
S315080034A05F3400085F3400085F3400085F340008A2
S315080034B05F34000831360008243B092BCFD801A217
S315080034C052F823F0CD350008CD350008CD35000873
S315080034D0CD350008CD3500085F340008C33500082F
S315080034E05F3400085B350008033600083D2B00F002
S315080034F083803E2BB3D1002001A9FFF79DFDAEE7DF
S31508003500802BACD1504B1B6F03F00703013B032BF9
S31508003510A5D8DFE803F0544D5052B3F5F06F6BD0E1
S3150800352020D8B3F5B06F4CD00ED8B3F5607F71D004
S3150800353095D3B3F5806F49D0B3F5A06F8FD100202E
S3150800354001A9FFF77DFB8AE7B3F5D06F59D0B3F52C
S31508003550E06FD0D0B3F5C06F81D1002001A9FFF785
S315080035601DFC7CE7B3F5206F5DD00BD8B3F5086F6B
S315080035704CD0B3F5106F7FF472AF002001A9FFF7A6
S31508003580ABFD6CE7B3F5406F48D0B3F5486F4FD045
S31508003590B3F5286F7FF463AF2B4BD3F8703203F083
S315080035A00303012B49D0022B0CBF1523002300E08F
S315080035B00523019353E70323FBE70823F9E70223CF
S315080035C0F7E7002001A9FFF70FFD48E7002001A94A
S315080035D0FFF7B0FB43E74FF0E02302901B695B0758
S315080035E005D527F00DFF0D230393039BE1E703A9F8
S315080035F002A8FFF7D3FBF8E7002001A9FFF756FC5E
S315080036002DE7002001A9FFF73BFD28E701A9FFF7F1
S315080036106DFB24E701A9FFF745FB20E7002001A978
S31508003620FFF7DCFA1BE7002001A9FFF7DBFB16E72B
S31508003630002001A9FFF708FC11E7002103A8FFF7FE
S31508003640ADFB1123B5E700BF008000504FF4803270
S31508003650074B0849586E03F580535A664B6A23F0A0
S3150800366001034B62C3035CBF034B5A66704700BF36
S315080036700080005000C0075000A0005008B5FFF7B2
S31508003680DDFE092811D00A38012802D94FF6FF7045
S3150800369008BD4FF48002064B5A6603F5D8335B6AB9
S315080036A0DB07F3D54FF4FA70F2E7024B1888EFE719
S315080036B000900050422A002008B5FFF7BFFE0328F5
S315080036C00ABF024B4FF6FF70188808BD402A002033
S315080036D038B504468020FFF7B1FE032800F0838042
S315080036E04FF48012524B4FF0A0615A6645F60E020F
S315080036F0504BC3F88020504A91624FF4803102F54E
S31508003700805291629A6DD203FCD4996D11F0804172
S31508003710FBD1D4E90002120542EA0062E07B0243CB
S31508003720207B42EA0042607B42EA0032A07B42EA02
S3150800373080121A619869D4E90452120642EA85622F
S3150800374000F000400243A07EE57E0243207E42EA66
S315080037500042607E42EA00229A611A6AE06922F013
S315080037600F0242EA8502354D00283DD11A6294F8C7
S315080037702420996A94F82000D200294042EA40128F
S315080037800A4394F8211042EA011242F480329A62FE
S315080037902B49284A936D31EA0303FBD14FF0807118
S315080037A0254881621369A56823F4700343EA055323
S315080037B013614FF00043836194F822300BB9214B13
S315080037C0996294F823303BB94FF480321D4B9A62C4
S315080037D0184A936D5B00FCD494F825301BB1154B41
S315080037E0194AC3F8802038BD024342F0080202286D
S315080037F01A6208D119614FF40852996113484FF4B7
S315080038007F411BF0FEFE0B4994F822308A6A94F831
S3150800381020001B062A4043EA4013134394F8242049
S3150800382043EAC20394F8232043EA02438B62D3E7B0
S31508003830009000500040005A0050005AC7FFFEFE94
S31508003840030001000060005AF1A7FFFF3440005A48
S31508003850014B93F900007047572A0020F0B5D0E9CC
S3150800386001434FF400061A4A4178057856664FF424
S31508003870D156022702F5B8325662164E4F2977609E
S315080038804FF0010728BF4F2106F580567760166965
S31508003890F603FCD441EA052151611B01417B43EA49
S315080038A004230B43017B43EA41039360C37B817B7B
S315080038B01B0143EA4113417C0B43017C43EA410364
S315080038C05360837C13B16FF4D1535362F0BD00BFCC
S315080038D00090005000100250014B1880704700BF3E
S315080038E0422A0020014B1880704700BF402A00205A
S315080038F04FF4800208B5184B5A660223174A5360DC
S31508003900936813F48033FBD1012822D127F092FD66
S31508003910134B984215D003F5122303F5F863984222
S3150800392013D0104B00EB8002400AB3FBF0F3520AA7
S315080039300A49CA620B6301234B620022074B5A608D
S3150800394008BD45F67A13084AF2E745F61A03074A08
S31508003950EEE75362F1E700BF0090005000400250C6
S3150800396000F0490264666666D8B80500BBCF050054
S31508003970B0F5207F10B50C465DD008D8B0F5007FAD
S315080039804ED003D8C0B1B0F5C07F15D010BDB0F584
S31508003990607FFBD12C4B4C1ED3F8FC202B4912F030
S315080039A0807F4FEA041427D1D1F8803023F0300302
S315080039B02343C1F88030E9E71BF032FE1BF03EFED8
S315080039C04FF48031224B214A1967136F013C23F4C7
S315080039D0704343EA0433136727F012FD0446FFF7E2
S315080039E0F1F8C0F1020120461BF022FE00F04AF869
S315080039F0BDE81040FFF712BDD3F8FC2022F0807214
S31508003A00C3F8FC20D1F8802022F030022243C1F806
S31508003A108020D3F8FC2042F08072C3F8FC20B5E77A
S31508003A200A4A4C1ED2F8903023F0F85343EA04634E
S31508003A30C2F89030AAE7054A4C1E136F23F4806338
S31508003A4043EA84231367A1E700ED00E000800050F5
S31508003A500090005008B50121022000F0A1FB4FF4A8
S31508003A602070FFF765FB054B18701BF0D9FD1BF09E
S31508003A70E5FD4FF48032024B1A6708BDED2400209D
S31508003A800090005008B54FF4C070FFF7C1FBBDE8C1
S31508003A9008400449884294BF012102214FF420704E
S31508003AA0FFF766BF80F0FA0238B5044627F0A8FC8F
S31508003AB00546FFF787F8C0F1020128461BF0B8FD56
S31508003AC00121002000F0ACFB2CB1FFF7DBFFBDE8BD
S31508003AD03840FFF7A3BC034B4FF420701978FFF763
S31508003AE047FFF4E7ED240020B0F5807FF8B50C46D3
S31508003AF000F053816BD85D285DD84C2804D82D2852
S31508003B0044D8232828D8F8BD4D381028FBD801A357
S31508003B1053F820F07B3D0008073B0008073B0008E8
S31508003B20073B00086B3C0008073B0008073B0008FA
S31508003B30313F0008A33C0008FB3B0008113F000882
S31508003B40073B0008073B0008073B0008073B00083F
S31508003B50073B0008513F000824380928D3D801A399
S31508003B6053F820F07B3D00087B3D00087B3D0008AC
S31508003B707B3D00087B3D0008073B00085B3D0008CD
S31508003B80073B0008313C00084B3E00083D2800F082
S31508003B904C813E28B7D1093C032C8CBF0021B34B7E
S31508003BA0B34A98BF195DD2F8403223F003030B439A
S31508003BB0C2F84032A7E78028A5D18B1E062B00F253
S31508003BC0C980DFE803F0C4B2C77FC7C7C100B0F534
S31508003BD0F06F00F02A813BD8B0F5B06F00F0BD80D9
S31508003BE01BD8B0F5607F00F06D818CD3B0F5806F7F
S31508003BF000F0C380B0F5A06F85D1073C0B2C8CBFB5
S31508003C0000219C4B9A4A98BF195DD2F8203223F0BE
S31508003C1007030B43C2F8203275E7B0F5D06F00F002
S31508003C201481B0F5E06FB6D0B0F5C06F7FF46BAF16
S31508003C30093C032C8CBF00218F4B8D4A98BF195D18
S31508003C40D2F8403123F003030B43C2F840315AE758
S31508003C50B0F5206F00F06C8117D8B0F5086F00F04A
S31508003C602181B0F5106F7FF44EAF093C062C8CBF4E
S31508003C700021824B7E4A98BF195DD2F8083223F09C
S31508003C8007030B43C2F808323DE7B0F5406F00F072
S31508003C903F81B0F5486F00F05B81B0F5286F7FF47F
S31508003CA032AF112C00F06481A4F115035C425C412B
S31508003CB064006F4AD2F8703223F003032343C2F834
S31508003CC0703220E7002502264FF4803701210220B2
S31508003CD000F066FA1BF0A4FC1BF0B0FC684B644AC3
S31508003CE01F67136F23F007033343136727F088FB17
S31508003CF00646FEF767FFC0F1020130461BF098FC46
S31508003D000121002000F08CFAFFF7BCFEFFF786FBC6
S31508003D10002D7FF4F8AE032C7FF4F5AE594B5A4AC2
S31508003D209F62936D5C00FCD4EDE64FF48012544B11
S31508003D300E465A664FF48032534B9D6A03F58053FC
S31508003D40C5F300659A62BFE700250426BCE700258F
S31508003D500126B9E700252E46B6E7023C0E2C8CBF95
S31508003D6000214A4B424A98BF195DD2F8803123F0A8
S31508003D7003030B43C2F88031C5E6023C052C8CBF11
S31508003D800021434B3A4A98BF195DD2F8203123F0F7
S31508003D9007030B43C2F82031B5E6A1F10904082C44
S31508003DA03FF6B1AE01A353F824F000BFD13D000899
S31508003DB0D13D0008073B0008D13D0008FF3D00083B
S31508003DC0073B0008073B0008073B0008D13D0008F1
S31508003DD04FF48032264B2F49586E03F580535A66A6
S31508003DE04B6AC00343F001034B625CBF2A4B5A6619
S31508003DF04FF0E022136923F00403136183E64FF4BE
S31508003E0080321B4B2349586E03F580535A664B6A1A
S31508003E1023F001034B62C1035CBF1F4B5A664FF088
S31508003E20E022136943F00403E7E7093C032C8CBF3F
S31508003E3000211A4B0E4A98BF195DD2F8603123F05B
S31508003E4003030B43C2F860315DE6093C062C8CBFC0
S31508003E500021134B064A98BF195DD2F8003223F0A9
S31508003E6007030B43C2F800324DE600BF3ACD0208FD
S31508003E700080005017CD02083ACD020833CD02085B
S31508003E80009000500060005A0040005A44CD0208D5
S31508003E903ECD020800C0075000A000503ACD0208E7
S31508003EA033CD0208CC1E062C8CBF0021314B324A7A
S31508003EB098BF195DD2F8003123F003030B43C2F80B
S31508003EC0003120E62D49063CD1F8FC2012F080721C
S31508003ED01EBFD1F8FC3023F08073C1F8FC30082CE3
S31508003EE08CBF0020264B244998BF185DD1F8803036
S31508003EF023F003030343C1F88030002A3FF403AEDE
S31508003F001E4AD2F8FC3043F08073C2F8FC30FAE55A
S31508003F10023C052C8CBF00211A4B174A98BF195D25
S31508003F20D2F8283123F007030B43C2F82831EAE513
S31508003F30023C0F2C8CBF0021134B0F4A98BF195D0A
S31508003F40D2F8603223F007030B43C2F86032DAE591
S31508003F50023C0F2C8CBF00210C4B074A98BF195DF9
S31508003F60D2F8943223F007030B43C2F89432CAE519
S31508003F7001249EE62CCD02080080005000ED00E0EA
S31508003F8023CD02083ECD020807CD020807CD020858
S31508003F904FF4C02270B50546FEF7ACFF314B044618
S31508003FA05A6603F598335A68012A04D12E494A609D
S31508003FB05A689207FCD48020FFF740FA052807D1F3
S31508003FC01BF02EFB1BF03AFB4FF48032254B1A6789
S31508003FD0264B24F040749D4230D0254B9D4230D06C
S31508003FE027F0E8F98542064603D90121284600F05C
S31508003FF017F9204BDA6812F0060FFBD199689C6016
S315080040009A68624012F4F81F1ED12846FDF768F830
S315080040108020FFF713FA05280DD127F0F1F9044699
S31508004020FEF7D0FDC0F1020120461BF001FBFFF7A9
S3150800403029FDFFF7F3F9AE420CD270BD44F00074C7
S31508004040CEE744F08074CBE780209960FFF7F6F955
S31508004050052805D0BDE870400121002000F0E0B831
S315080040603546DAE70090005000E0015040420F0064
S3150800407080841E0000000150304B314A984251D0CE
S3150800408020D8A3F5B703A3F55863984246D00DD8B0
S315080040902C4B984231D02C4B984239D02B4B4FF4AD
S315080040A0002198421DD00023516622E0284B4FF488
S315080040B000219842F7D1274BD3F8BC30516623F03C
S315080040C0407316E0244B984230D0244B984231D0A6
S315080040D0234B4FF400219842E5D11E4BD3F8C83044
S315080040E0ECE71C4BD3F8A030516623F0407343F03D
S315080040F000734FF0B442936070474FF40021154B9C
S31508004100D3F8A030516623F0407343F08073F0E78C
S31508004110104BD3F8A0304FF40021CFE70D4BD3F85E
S31508004120B830F8E70B4BD3F8C030F4E7094BD3F8AF
S31508004130CC30F0E7074BD3F8D030ECE7C0EA2101E2
S315080041400090005080841E0000093D0040420F0088
S315080041500024F4000080E00F0048E801005A6202DB
S3150800416080BA8C01024A536B0342FCD1704700BFE8
S3150800417000400950044A4178536F23F4407343EAD8
S3150800418001235367704700BF00400050034A017976
S31508004190D36E23F030030B43D366704700400050BC
S315080041A0F8B504461C4BD3F88420D106FBD4D3F8C3
S315080041B08430C3F381139C422CD027F001F9012CDB
S315080041C0064602D121461BF033FA28F06EF84FF066
S315080041D00072124B07465A6620461BF035FA4FF412
S315080041E080630D4D621E93402B676B6E9A0103D454
S315080041F0D5F884309B060AD5384628F051F8022CA3
S3150800420008D13046BDE8F84000211BF011BAD5F8B0
S315080042108430EAE7F8BD00BF004000500060005057
S3150800422010B50C4608B927F0CBF8074B21461B7882
S315080042303BB1064B984204D80120BDE81040FFF771
S31508004240AFBF0220F9E700BFEE240020005A620241
S315080042500278034B012100201A70FFF7E1BF00BF67
S31508004260EE2400204FF0004238B5244B244C5A6601
S315080042704AF6CD33656C014605F00105236428BB73
S315080042800120FFF76FFF6368DB0715D51D4B5860E4
S3150800429008461D4B226BD2070CD4984208D1072436
S315080042A015B1174B194A1A6424F019F8204638BD77
S315080042B00130EFE79842F2D00024F1E70132236B90
S315080042C013F0080305D08A42F8D1E8E700220E4920
S315080042D0F5E78A42E3D020210A4A91620121A2F534
S315080042E0805251600649084A886A800603D4934278
S315080042F0D5D00133F8E79342DDE700BF00900050C0
S31508004300004009500060095040420F003254FFFF38
S315080043104FF0004238B5164B01465A664AF6CD3379
S31508004320144C154A656C236443780B205B0043F0F4
S315080043300103D363FFF716FF63688A7823F4F873DB
S3150800434043EA02136360CA784B7943EA0223A360FF
S315080043500A798B7943EA022323610878FFF782FFFB
S31508004360EB0744BF054B236423F0B9FF012038BD92
S315080043700090005000400950004000503254FFFFA2
S315080043804FF00042124B70B55D6E03F580535A66C6
S315080043904AF6CD3304460F4980204E6C0B64FFF76E
S315080043A0E1FE0B6A23F00F030F2C94BF234343F05F
S315080043B00F030B62F30744BF074B0B64002DA2BF24
S315080043C04FF00042054B5A6623F089FF70BD00BFC7
S315080043D000800050004009503254FFFF00A00050F2
S315080043E04FF00042104B70B55D6E03F580535A6668
S315080043F04AF6CD3304460D4980204E6C0B64FFF710
S31508004400B1FE0B6A23F4F85343EA04230B62F3075D
S3150800441044BF074B0B64002DA2BF4FF00042054B6B
S315080044205A6623F05CFF70BD0080005000400950BA
S315080044303254FFFF00A0005010B51BF00AF9042300
S3150800444000F5805100F500520B6113610B61136191
S315080044500B6113610B611361202341F202010361B1
S315080044600023C360836041614FF4A02183618365A3
S3150800447041620549C36103628362C362436303659C
S31508004480D164036310BD00BFFF3F0D0370B5054639
S315080044901446084641B9354B9D4218D0344B9D42C7
S315080044A008BF5720FEF7B4FEAB6813F0010F6B6820
S315080044B030D0B0FBF4F4D80704F1FF344FEA0464B3
S315080044C007D42B6923F07F4323432B6170BD562005
S315080044D0E8E7282128461BF0B8F8AB6C990715D1F0
S315080044E0AB6CDA0714D4AB6C13F0020F14BF0626B4
S315080044F0002628461BF0ADF82B69314623F07F438A
S3150800450023432B61BDE870401BF0DAB80526F0E7B7
S315080045100926EEE7AB6DDB07AB6848BF640003F01E
S31508004520E003402B1BD004D8DBB1202BCED10823C7
S3150800453004E0602B17D0802BC8D1012363434101C7
S31508004540B1FBF3F20B4B203A284603EAC2020121DB
S315080045501BF07BF82A63BDE870401BF076B806238B
S31508004560ECE71023EAE70423E8E700BF0000015B55
S3150800457000000A50F8FF7F00F8B5436804460E4667
S315080045800D691BB140F6FF711BF05FF82046FFF777
S3150800459053FF2269737BB17B22F087020B431343D7
S315080045A043F0800323611DBBA368F27B23F003035A
S315080045B0134343F00103A3606369327B23F00F03BF
S315080045C013436361D6E901122046FFF75FFF052111
S315080045D020461BF058F828211BF037F83378A363D8
S315080045E01BF033F8A36CDB4313F4405FFAD1F8BD34
S315080045F02369297F23F0F80343EAC1132978EA7B64
S315080046000B43297943EA4113697A43EA011343EADA
S3150800461082132361E068D5E9053720F0F0403B4373
S3150800462020F470200343287B697B43EA802343EA0E
S31508004630C133E360A368F07B23F00303034343F02D
S315080046400103A3606B88A06803F4C0430343A36017
S31508004650A368687943EA8023A360AB79EF79606A37
S315080046601B013F0203F0700307F4E06720F477208C
S3150800467020F4EE603B430343287A000300F4E0404D
S315080046800343687F000400F4702003436362636990
S31508004690307B23F00F03034363616B89A36111B376
S315080046A0164B9C420CD1AB7B154903F00F034B67A5
S315080046B0002A87D02B7C124A03F00F03136781E781
S315080046C0104B9C427FF47EAFAB7B0D4903F00F0382
S315080046D0C1F88030002A3FF475AF2B7C084A03F0F6
S315080046E00F03D3676EE7002A3FF46CAF034B9C4277
S315080046F0E0D0044B9C42F0D064E700BF0000015BA9
S315080047000090035000000A502DE9F04105460F4677
S315080047101E4690464AB101233022194C8B4002FBB3
S31508004720004436B304F5825423600F21072F05EBA6
S31508004730450388BFA7F108044FEA0313114895BF3C
S31508004740BC00A40004330C3308FA04F2A140184450
S315080047501AF0C5FFB8F1000F09D101233021084A24
S31508004760BB4001FB05223EB102F582521360BDE84B
S31508004770F08104F50154D7E702F50152F6E700BFC8
S3150800478000C0035030C003504369DA01FCD401234A
S3150800479000F50050024A436053689B07FCD47047F3
S315080047A00040005970B504461546FFF7EDFF0B7833
S315080047B04A7803F0070343EAC203CA7843EA0223A6
S315080047C08A78120102F070021343C4F88030E26A54
S315080047D00B7922F0170203F0070313434A791201F3
S315080047E002F010021343E3621E4B2A469C4225D070
S315080047F0012004F5805358601A4B00229C422AD0A7
S315080048008B79A26153BB70BD12F8023C12F8040CF6
S315080048105B0443EA002312F8050C034312F8030C61
S31508004820000400F48030034306F1280044F82030E1
S315080048300136102E02F10502E6D1D9E70026F8E77F
S3150800484003EB8306AE5D16B100FA03F63243013375
S31508004850102BF5D1D4E713460435F9E70823E360AE
S31508004860D1E700BF00400059084608B569B92A20B3
S31508004870FEF7CEFCB0B10C4B984206D90B4B9B68A1
S31508004880C3F302730133B0FBF3F0094B00F5742050
S3150800489000F23F20B0FBF3F001387F2828BF7F20C5
S315080048A0C0B208BD0120F0E7005A62020040005974
S315080048B040420F000B4B10B5994228BF19460C46CB
S315080048C01AB92A20FEF7A4FC0246631E1344B3FB5A
S315080048D0F4F0A34228BF00F1FF30032828BF0320C5
S315080048E0C0B210BD005A620210B50C46FBB11149A0
S315080048F01148012B08BF01468C4228BF0C461AB93D
S315080049002A20FEF785FC02469DF8083040F2FF3063
S315080049100133B2FBF3F2631E1A44B2FBF4F3A2426C
S3150800492028BF03F1FF33984228BF184610BD034934
S31508004930E2E700BF404B4C00002D310180969800FD
S3150800494013B5044601A800F0D1FA042C8EBF002046
S31508004950024B33F8140002B010BD00BF54CD020854
S315080049602DE9F04F2DED048B06468DB0DFF85CC3BC
S3150800497006AF0C461546BCE80F000FC79CE80300B7
S3150800498087E80300C74F002239463046FFF792FFF3
S3150800499094F80580804538BF80463046FFF7F4FE18
S315080049A020795FFA88F850B92A20FEF731FCB84218
S315080049B0014628BFB0FBF8F13046FFF755FFE3780C
S315080049C04FEA08721B0102F0E04203F0300313437A
S315080049D00004227800F4FE0003430AB143F0020300
S315080049E062780AB143F00403A2780AB143F00803D7
S315080049F0B360E38822893361638943EA02433362F9
S31508004A00A94B9E4200F01D82012306F5805673606D
S31508004A100DB0BDEC048BBDE8F08FA44920E0D1F8B9
S31508004A208041012B4FEA144440F29680022B00F095
S31508004A3071813F0107F1B247C9F3090307F58047BA
S31508004A407B600AF1010A1435BAF1020FDCD02B7823
S31508004A50AF68002BE1D09649964A012B18BF11463C
S31508004A60914C00222046CDF800800393FFF73CFFC7
S31508004A7004EB0A14A16C039B21F0435121F41D1188
S31508004A8021F443511FFA87F921F03F0103F0030788
S31508004A900F43697881454FEA810101F01C0147EA15
S31508004AA00107A97838BF81464901C9B20F43E97899
S31508004AB02879090301F4E0413943070407F4E0279C
S31508004AC039432F7C4FEA0A1B7F0507F460073943F1
S31508004AD06F793F0707F040573943A164A46C7649BC
S31508004AE0C4F30234013C0AF10507042C2BD80FF253
S31508004AF0080C5CF824F000BF474B0008474B000839
S31508004B001F4A00080D4B0008274B0008D1F88441BE
S31508004B10012BA4B28AD8002B40F09880D1F88C11CA
S31508004B20091449001DE0D1F88441012B4FEA1444C9
S31508004B303FF67CAF002B40F08C80D1F88C1109141D
S31508004B4001EB41010DE0D1F88041012BA4B23FF6FB
S31508004B506DAFDFED637A08E0002B74D1D1F88C11C4
S31508004B60091407EE901AF8EEE77A22040BF1B2421E
S31508004B7002F58042926C24F4C041C2F3820C4FF0D5
S31508004B8001020CF1010E02FA0EF209EE102A4FEAA2
S31508004B908141B8EEC99AF6EE008A474A48BF41F005
S31508004BA00041BCF1000F5AD1002B55D1D2F88C31F7
S31508004BB01BB207EE103AB8EEC77A37EE878A002896
S31508004BC040F0908005A8039100F090F9DFED3B7A5C
S31508004BD068EE277A0399DFED3A6A86EE897ADFED81
S31508004BE0396A27EE267AF1EE006AB1F1004F07EE30
S31508004BF0A67A0BD0DFED347A06EE104A77EE276AEE
S31508004C00BAEEE86A56EE267AB0EE677AB5EEC07A5C
S31508004C10F1EE10FACBBFB1EE477A78EEC78A37EED7
S31508004C20687AFDEEE87AC8BFFDEEC77A17EE903AC5
S31508004C30B3F5003F65DB6FEA51416FEA41411A4A15
S31508004C403B01D150F5E6D1F8941189E7D1F89411D2
S31508004C5066E7D1F8941172E7D2F89431A8E7ABB9B0
S31508004C60D2F890311BB207EE103AB8EEC77A77EE53
S31508004C70677A69EE286A104B87EEA67AD3F88831E8
S31508004C801BB207EE903AF8EEE77A96E7D2F8983133
S31508004C901BB207EE103AB8EEC77A37EE677A77EEA8
S31508004CA0877AE6E7005A6202004000598096980023
S31508004CB0002D3101404B4C000080E00F3D3B843F06
S31508004CC000008043000020440000004960CD02082F
S31508004CD000007A4400000038E71B753F00000047D3
S31508004CE000000000D5ED037A5FED076AF8EE677AF3
S31508004CF087EEA67AF7EE046AC6EE877A67EE887AB2
S31508004D0069E713F5003FAABFC3F3110341F4003165
S31508004D10194394E7FFF714FE07EE900A1FED147A7D
S31508004D20F8EE677A0BF1B24303F580439B6C0CAA45
S31508004D30C3F3421302EB830387EE875A13ED067A11
S31508004D40FCEEC77A17EE903AF7EE006A5C2B1CBFAA
S31508004D5077EE267A87EE276A07EE904A5FED235AA2
S31508004D60F8EE677A08BF1FED246A67EEA57A67EE44
S31508004D70867A1FED266A67EE867AF5EEC07AB6EE73
S31508004D80006AF1EE10FA4CBF77EEC67A77EE867AAD
S31508004D900BF1B24202F58042136DFDEEE77A00236D
S31508004DA0136517EE903A17EE900A13F4004F136D39
S31508004DB05FED354A18BF43F000431365224B116D6A
S31508004DC003EA80430B431365204B9FED214AD3F832
S31508004DD08811D3F88831116D1BB207EE903AF8EEB8
S31508004DE0E77A77EEA47AC4EE074A37EE267AC4EE57
S31508004DF0876AF7EE044A84EE857A67EE277AB1EE7B
S31508004E00007A47EE876A07EE104ADFED127AB8EEA7
S31508004E10C77A76EEA76A65EEC75A46EEA57AF5EE24
S31508004E20C07AF1EE10FA4CBF77EEC67A77EE867A3C
S31508004E30FDEEE77A17EE903AC3F311030B431365B9
S31508004E40F7E54FF0000AFFE50000FC7F0080E00F61
S31508004E5000008048000000494FF48032054B9A66EE
S31508004E6041F6713203F51C33DA63012203F5005368
S31508004E70DA6070470090005041F671320121064B06
S31508004E80DA6303F50052D1600022DA634FF4803208
S31508004E90A3F518339A667047000003500138312885
S31508004EA09ABF024B185C0020704700BF78CD0208F5
S31508004EB038B5C2F30625044602F0070241B942EAAC
S31508004EC0052242F440220634074B43F8242038BD15
S31508004ED0114628461AF0A8FC02462846FFF7DEFFC8
S31508004EE0163442EA0022EFE7008003504FF480327E
S31508004EF0064B5A6603F5E6239B69C3F3851282704F
S31508004F0003F03F021B0B427003707047009000507D
S31508004F10014B986CD96C70470080E00F0120034B59
S31508004F209B680A3303F01F03984070470080E00F20
S31508004F30F8B50C46164607691AF093FCA37862780A
S31508004F409B0343EA0243E27A054613436268D202A8
S31508004F5002F4C0521343227A43EA0223627A43EAEE
S31508004F600213A27A43EA820322784EBB4361416B5D
S31508004F70636921F47F7121F00301C3F309030B432D
S31508004F80436300F5805301205860E368217CDB0306
S31508004F9003F4FC1343EA0133E17C2E6B0B43617C7B
S31508004FA043EA0123A17C43EA01131D4931400B431F
S31508004FB02B63002A2FD1BA0701D51023EB61F8BD60
S31508004FC0012E23D18361416B164B606921F0FF7175
S31508004FD003EAC03321F4C0310B436B6305F58053F4
S31508004FE05E60E368217C5B0603F0FC4343EA815379
S31508004FF0617C286B43EA4123A17C43EA4113E17CA7
S3150800500043EA4103084901400B432B632AB9FB07CE
S31508005010D5D50123D2E7E861CDE71023EB61F6E7A2
S31508005020EE0EE0FF0080FF01DDFD3F800F4B10B55F
S31508005030994228BF19460E4B0C4698420ED1542069
S31508005040FEF7E6F80346002210460132B3FBF2F1FA
S31508005050A14202D9802AF7D17F2010BD054B98427C
S3150800506001D15D20ECE70023EDE700BF40420F00C9
S3150800507000400259008002590122437801789A407B
S3150800508030235943014B5A50704700BF40E0035044
S31508005090034BD3F82424D3F820041040704700BFEC
S315080050A000C003502DE9F8431F4B0546D3F81033CB
S315080050B04B1E0E2B0E461746047890F8018026D90B
S315080050C051B34FF0000928461FB326F015FA0F21F1
S315080050D0B8F1070F04EB440488BFA8F108084FEAA3
S315080050E00414124895BF4FEA88084FEA8808043422
S315080050F00C3409FA08F201FA08F120441AF03AFCCD
S3150800510086B9284657B1BDE8F84326F0F5B9894669
S31508005110D9E7FFF7B1FFDAE78946D8E7BDE8F843EC
S31508005120FFF7AABFBDE8F88300C0035030C003509C
S31508005130054B9A689107FCD45A689207F9D4DA693C
S31508005140002AF6D1704700BF00800A50034908B507
S315080051504B6826F0DDF902230B6108BD00800A5072
S3150800516008B5FFF7E5FF0122024B03F580514A60B7
S315080051701A6108BD00800A5008B5044B5868012812
S3150800518003D1FFF7E3FF024B586008BD00800A50C1
S3150800519000A00A5038B5074DFFF7CAFF6B680446EA
S315080051A0012B03D1FFF7E8FFFFF7C2FF2378EB6077
S315080051B038BD00BF00800A5010B526F0B3F9B8B95B
S315080051C04A680B7812B1127843EAC2034A7843EA6E
S315080051D042038A6812B1127843EA8213CA7843EA0C
S315080051E082030A6912B1127843EA4223014A936498
S315080051F010BD00BF00800A504FF48032084B5A6633
S3150800520003F5E6239B691A0B027003F03F0242700E
S315080052104FF6FF72C3F3851342808380704700BF41
S3150800522000900050014B986CD96C70470080E00FD5
S3150800523070B5044623F01DF9064630B90FCC044D67
S315080052400FC594E8030085E80300304670BD00BF2B
S315080052502C16002047F6FF739A42F0B56FD0022944
S315080052606FD8394B5B5C012B6BD8384DDF0005EBEB
S31508005270C30415F83330A178012B13D10025E07843
S31508005280401AA84202D80844C0B2F0BD431B66685B
S31508005290A0EB530336F913609642D4BF1D4603F1BB
S315080052A0FF30EEE760680028EFD0B0F9004094427E
S315080052B004DBB0F902409442B8BF144683883D44E3
S315080052C0FF2B19BFC8224FF0280CB0F90620B0F9F9
S315080052D008C0A2EB04030CBF0126002693FBFCF3CF
S315080052E033446E781BB29E4201DD002B01DA731E31
S315080052F01BB24FF47A7C01339BB2071D5D1E2DB29B
S315080053004FEAC50E00EBC505EA88AD689E4214FB58
S31508005310025222EAE27202F15C02B2FBFCF204DDFE
S3150800532037F8335001339542E8D200EB0E039888DC
S31508005330904228BF1046884238BF0846A4E7FF2097
S31508005340A3E70020A1E700BFAACD02082C1600207B
S315080053500229F0B555D82C4B585C012851D82B4C4E
S3150800536004EBC00114F830004B6801280FD1C87847
S315080053708C78904294BFC4EB0001C4EB0201001B79
S31508005380CAB28242C8BF002233F91200F0BD002B10
S3150800539037D08878904202D3B3F90200F6E7CC7882
S315080053A0B3F900009442F1D94C789988013CA1F1EF
S315080053B0FF06714203F10405E4B2714103F10C07DB
S315080053C0CEB2B44216D805EBC1014FF47A756A43DA
S315080053D0B1F902404968521A04EBD47102EB610232
S315080053E092FBF4F29042D1DBB3F902009042CDDC95
S315080053F010B2CBE737F831C04E1C9445E3D331469B
S31508005400DEE70348C2E700BFAACD02082C16002033
S315080054100080FFFF08B50448FFF70AFFBDE808400B
S31508005420012023F02AB800BFB0CD02080048704713
S31508005430442A00207FB50222084B0949CDE90123F9
S315080054404FF00073CDE90313052301A94FF0FF3090
S31508005450059323F069F807B05DF804FB006A1800A5
S31508005460000204002DE9F0418CB08846DDE9127689
S315080054701D460446002847D0002945D0002F43D0B2
S31508005480002E41D013F00F033ED120482049A360D7
S31508005490002A08BF01462362C4E90013404609A949
S315080054A01AF043FB68BB2046099926F045FF2946B2
S315080054B0204626F041FF6946404600F0DFFA00BB69
S315080054C0694620461AF047FD404603A91AF014FC1F
S315080054D0B8B9204603A91AF03EFD069701272046CB
S315080054E045F0005506A9079708951AF034FD204699
S315080054F009A909960A970B9526F044FF204626F037
